{
  "_format": "hh-sol-artifact-1",
  "contractName": "BCtwatter",
  "sourceName": "contracts/BCtwatter.sol",
  "abi": [
    {
      "inputs": [],
      "stateMutability": "payable",
      "type": "constructor"
    },
    {
      "anonymous": false,
      "inputs": [
        {
          "indexed": true,
          "internalType": "address",
          "name": "from",
          "type": "address"
        },
        {
          "indexed": false,
          "internalType": "uint256",
          "name": "timestamp",
          "type": "uint256"
        },
        {
          "indexed": false,
          "internalType": "string",
          "name": "message",
          "type": "string"
        }
      ],
      "name": "TwatReceived",
      "type": "event"
    },
    {
      "inputs": [
        {
          "internalType": "uint256",
          "name": "twatIndex",
          "type": "uint256"
        }
      ],
      "name": "cheers",
      "outputs": [],
      "stateMutability": "nonpayable",
      "type": "function"
    },
    {
      "inputs": [],
      "name": "getAllTwats",
      "outputs": [
        {
          "components": [
            {
              "internalType": "uint256",
              "name": "twatID",
              "type": "uint256"
            },
            {
              "internalType": "address",
              "name": "twatee",
              "type": "address"
            },
            {
              "internalType": "string",
              "name": "message",
              "type": "string"
            },
            {
              "internalType": "uint256",
              "name": "timestamp",
              "type": "uint256"
            },
            {
              "internalType": "uint256",
              "name": "N_cheers",
              "type": "uint256"
            }
          ],
          "internalType": "struct BCtwatter.Twat[]",
          "name": "",
          "type": "tuple[]"
        }
      ],
      "stateMutability": "view",
      "type": "function"
    },
    {
      "inputs": [],
      "name": "getTotalTwats",
      "outputs": [
        {
          "internalType": "uint256",
          "name": "",
          "type": "uint256"
        }
      ],
      "stateMutability": "view",
      "type": "function"
    },
    {
      "inputs": [
        {
          "internalType": "address",
          "name": "",
          "type": "address"
        }
      ],
      "name": "lastCheersedAt",
      "outputs": [
        {
          "internalType": "uint256",
          "name": "",
          "type": "uint256"
        }
      ],
      "stateMutability": "view",
      "type": "function"
    },
    {
      "inputs": [
        {
          "internalType": "address",
          "name": "",
          "type": "address"
        }
      ],
      "name": "lastTwattedAt",
      "outputs": [
        {
          "internalType": "uint256",
          "name": "",
          "type": "uint256"
        }
      ],
      "stateMutability": "view",
      "type": "function"
    },
    {
      "inputs": [
        {
          "internalType": "string",
          "name": "_message",
          "type": "string"
        }
      ],
      "name": "twat",
      "outputs": [],
      "stateMutability": "nonpayable",
      "type": "function"
    }
  ],
  "bytecode": "0x60806040526200004f6040518060400160405280600f81526020017f436f6e74726163742063616c6c656400000000000000000000000000000000008152506200007760201b6200092c1760201c565b606444426200005f9190620001c4565b6200006b919062000261565b60018190555062000308565b62000117816040516024016200008e919062000184565b6040516020818303038152906040527f41304fac000000000000000000000000000000000000000000000000000000007bffffffffffffffffffffffffffffffffffffffffffffffffffffffff19166020820180517bffffffffffffffffffffffffffffffffffffffffffffffffffffffff83818316178352505050506200011a60201b60201c565b50565b60008151905060006a636f6e736f6c652e6c6f679050602083016000808483855afa5050505050565b60006200015082620001a8565b6200015c8185620001b3565b93506200016e8185602086016200022b565b6200017981620002f7565b840191505092915050565b60006020820190508181036000830152620001a0818462000143565b905092915050565b600081519050919050565b600082825260208201905092915050565b6000620001d18262000221565b9150620001de8362000221565b9250827fffffffffffffffffffffffffffffffffffffffffffffffffffffffffffffffff0382111562000216576200021562000299565b5b828201905092915050565b6000819050919050565b60005b838110156200024b5780820151818401526020810190506200022e565b838111156200025b576000848401525b50505050565b60006200026e8262000221565b91506200027b8362000221565b9250826200028e576200028d620002c8565b5b828206905092915050565b7f4e487b7100000000000000000000000000000000000000000000000000000000600052601160045260246000fd5b7f4e487b7100000000000000000000000000000000000000000000000000000000600052601260045260246000fd5b6000601f19601f8301169050919050565b6116dd80620003186000396000f3fe608060405234801561001057600080fd5b50600436106100625760003560e01c806320cd43e7146100675780634609b29214610085578063541a74b2146100a1578063646d9f95146100bd57806390517109146100db578063d7316e0b1461010b575b600080fd5b61006f61013b565b60405161007c91906111ed565b60405180910390f35b61009f600480360381019061009a9190610d23565b610144565b005b6100bb60048036038101906100b69190610d64565b610563565b005b6100c5610797565b6040516100d29190611044565b60405180910390f35b6100f560048036038101906100f09190610cfa565b6108fc565b60405161010291906111ed565b60405180910390f35b61012560048036038101906101209190610cfa565b610914565b60405161013291906111ed565b60405180910390f35b60008054905090565b42610384600260003373ffffffffffffffffffffffffffffffffffffffff1673ffffffffffffffffffffffffffffffffffffffff1681526020019081526020016000205461019291906112ff565b106101d2576040517f08c379a00000000000000000000000000000000000000000000000000000000081526004016101c99061118d565b60405180910390fd5b42600260003373ffffffffffffffffffffffffffffffffffffffff1673ffffffffffffffffffffffffffffffffffffffff168152602001908152602001600020819055506102566040518060400160405280600e81526020017f257320747761747465643a20257300000000000000000000000000000000000081525033836109c5565b60046040518060a0016040528060005481526020013373ffffffffffffffffffffffffffffffffffffffff168152602001838152602001428152602001600081525090806001815401808255809150506001900390600052602060002090600502016000909190919091506000820151816000015560208201518160010160006101000a81548173ffffffffffffffffffffffffffffffffffffffff021916908373ffffffffffffffffffffffffffffffffffffffff160217905550604082015181600201908051906020019061032e929190610bc5565b50606082015181600301556080820151816004015550503373ffffffffffffffffffffffffffffffffffffffff167fe35cdf0665f4aa886a6d23a5d9c878668e11e7b93d0ac5b58efcbd18c19b6fd0428360405161038d929190611208565b60405180910390a260016000808282546103a791906112ff565b92505081905550606460015442446103bf91906112ff565b6103c991906112ff565b6103d39190611436565b60018190555061041a6040518060400160405280601681526020017f52616e646f6d20232067656e6572617465643a20256400000000000000000000815250600154610a64565b600a60015411610560576104636040518060400160405280602081526020017f57696e6e65722077696e6e657220636869636b656e2064696e6e65723a20257381525033610b00565b6000655af3107a40009050478111156104b1576040517f08c379a00000000000000000000000000000000000000000000000000000000081526004016104a8906111ad565b60405180910390fd5b60003373ffffffffffffffffffffffffffffffffffffffff16826040516104d79061102f565b60006040518083038185875af1925050503d8060008114610514576040519150601f19603f3d011682016040523d82523d6000602084013e610519565b606091505b505090508061055d576040517f08c379a00000000000000000000000000000000000000000000000000000000081526004016105549061116d565b60405180910390fd5b50505b50565b4261012c600360003373ffffffffffffffffffffffffffffffffffffffff1673ffffffffffffffffffffffffffffffffffffffff168152602001908152602001600020546105b191906112ff565b106105f1576040517f08c379a00000000000000000000000000000000000000000000000000000000081526004016105e89061114d565b60405180910390fd5b42600360003373ffffffffffffffffffffffffffffffffffffffff1673ffffffffffffffffffffffffffffffffffffffff16815260200190815260200160002081905550600160048281548110610671577f4e487b7100000000000000000000000000000000000000000000000000000000600052603260045260246000fd5b9060005260206000209060050201600401600082825461069191906112ff565b9250508190555060006509184e72a0009050478111156106e6576040517f08c379a00000000000000000000000000000000000000000000000000000000081526004016106dd906111cd565b60405180910390fd5b60003373ffffffffffffffffffffffffffffffffffffffff168260405161070c9061102f565b60006040518083038185875af1925050503d8060008114610749576040519150601f19603f3d011682016040523d82523d6000602084013e61074e565b606091505b5050905080610792576040517f08c379a00000000000000000000000000000000000000000000000000000000081526004016107899061112d565b60405180910390fd5b505050565b60606004805480602002602001604051908101604052809291908181526020016000905b828210156108f357838290600052602060002090600502016040518060a0016040529081600082015481526020016001820160009054906101000a900473ffffffffffffffffffffffffffffffffffffffff1673ffffffffffffffffffffffffffffffffffffffff1673ffffffffffffffffffffffffffffffffffffffff16815260200160028201805461084e906113d3565b80601f016020809104026020016040519081016040528092919081815260200182805461087a906113d3565b80156108c75780601f1061089c576101008083540402835291602001916108c7565b820191906000526020600020905b8154815290600101906020018083116108aa57829003601f168201915b5050505050815260200160038201548152602001600482015481525050815260200190600101906107bb565b50505050905090565b60026020528060005260406000206000915090505481565b60036020528060005260406000206000915090505481565b6109c2816040516024016109409190611066565b6040516020818303038152906040527f41304fac000000000000000000000000000000000000000000000000000000007bffffffffffffffffffffffffffffffffffffffffffffffffffffffff19166020820180517bffffffffffffffffffffffffffffffffffffffffffffffffffffffff8381831617835250505050610b9c565b50565b610a5f8383836040516024016109dd939291906110b8565b6040516020818303038152906040527fe0e9ad4f000000000000000000000000000000000000000000000000000000007bffffffffffffffffffffffffffffffffffffffffffffffffffffffff19166020820180517bffffffffffffffffffffffffffffffffffffffffffffffffffffffff8381831617835250505050610b9c565b505050565b610afc8282604051602401610a7a9291906110fd565b6040516020818303038152906040527f9710a9d0000000000000000000000000000000000000000000000000000000007bffffffffffffffffffffffffffffffffffffffffffffffffffffffff19166020820180517bffffffffffffffffffffffffffffffffffffffffffffffffffffffff8381831617835250505050610b9c565b5050565b610b988282604051602401610b16929190611088565b6040516020818303038152906040527f319af333000000000000000000000000000000000000000000000000000000007bffffffffffffffffffffffffffffffffffffffffffffffffffffffff19166020820180517bffffffffffffffffffffffffffffffffffffffffffffffffffffffff8381831617835250505050610b9c565b5050565b60008151905060006a636f6e736f6c652e6c6f679050602083016000808483855afa5050505050565b828054610bd1906113d3565b90600052602060002090601f016020900481019282610bf35760008555610c3a565b82601f10610c0c57805160ff1916838001178555610c3a565b82800160010185558215610c3a579182015b82811115610c39578251825591602001919060010190610c1e565b5b509050610c479190610c4b565b5090565b5b80821115610c64576000816000905550600101610c4c565b5090565b6000610c7b610c768461125d565b611238565b905082815260208101848484011115610c9357600080fd5b610c9e848285611391565b509392505050565b600081359050610cb581611679565b92915050565b600082601f830112610ccc57600080fd5b8135610cdc848260208601610c68565b91505092915050565b600081359050610cf481611690565b92915050565b600060208284031215610d0c57600080fd5b6000610d1a84828501610ca6565b91505092915050565b600060208284031215610d3557600080fd5b600082013567ffffffffffffffff811115610d4f57600080fd5b610d5b84828501610cbb565b91505092915050565b600060208284031215610d7657600080fd5b6000610d8484828501610ce5565b91505092915050565b6000610d998383610f9b565b905092915050565b610daa81611355565b82525050565b610db981611355565b82525050565b6000610dca8261129e565b610dd481856112c1565b935083602082028501610de68561128e565b8060005b85811015610e225784840389528151610e038582610d8d565b9450610e0e836112b4565b925060208a01995050600181019050610dea565b50829750879550505050505092915050565b6000610e3f826112a9565b610e4981856112dd565b9350610e598185602086016113a0565b610e6281611523565b840191505092915050565b6000610e78826112a9565b610e8281856112ee565b9350610e928185602086016113a0565b610e9b81611523565b840191505092915050565b6000610eb3601b836112ee565b9150610ebe82611534565b602082019050919050565b6000610ed66035836112ee565b9150610ee18261155d565b604082019050919050565b6000610ef96017836112ee565b9150610f04826115ac565b602082019050919050565b6000610f1c6000836112d2565b9150610f27826115d5565b600082019050919050565b6000610f3f6034836112ee565b9150610f4a826115d8565b604082019050919050565b6000610f62600f836112ee565b9150610f6d82611627565b602082019050919050565b6000610f85601a836112ee565b9150610f9082611650565b602082019050919050565b600060a083016000830151610fb36000860182611011565b506020830151610fc66020860182610da1565b5060408301518482036040860152610fde8282610e34565b9150506060830151610ff36060860182611011565b5060808301516110066080860182611011565b508091505092915050565b61101a81611387565b82525050565b61102981611387565b82525050565b600061103a82610f0f565b9150819050919050565b6000602082019050818103600083015261105e8184610dbf565b905092915050565b600060208201905081810360008301526110808184610e6d565b905092915050565b600060408201905081810360008301526110a28185610e6d565b90506110b16020830184610db0565b9392505050565b600060608201905081810360008301526110d28186610e6d565b90506110e16020830185610db0565b81810360408301526110f38184610e6d565b9050949350505050565b600060408201905081810360008301526111178185610e6d565b90506111266020830184611020565b9392505050565b6000602082019050818103600083015261114681610ea6565b9050919050565b6000602082019050818103600083015261116681610ec9565b9050919050565b6000602082019050818103600083015261118681610eec565b9050919050565b600060208201905081810360008301526111a681610f32565b9050919050565b600060208201905081810360008301526111c681610f55565b9050919050565b600060208201905081810360008301526111e681610f78565b9050919050565b60006020820190506112026000830184611020565b92915050565b600060408201905061121d6000830185611020565b818103602083015261122f8184610e6d565b90509392505050565b6000611242611253565b905061124e8282611405565b919050565b6000604051905090565b600067ffffffffffffffff821115611278576112776114f4565b5b61128182611523565b9050602081019050919050565b6000819050602082019050919050565b600081519050919050565b600081519050919050565b6000602082019050919050565b600082825260208201905092915050565b600081905092915050565b600082825260208201905092915050565b600082825260208201905092915050565b600061130a82611387565b915061131583611387565b9250827fffffffffffffffffffffffffffffffffffffffffffffffffffffffffffffffff0382111561134a57611349611467565b5b828201905092915050565b600061136082611367565b9050919050565b600073ffffffffffffffffffffffffffffffffffffffff82169050919050565b6000819050919050565b82818337600083830152505050565b60005b838110156113be5780820151818401526020810190506113a3565b838111156113cd576000848401525b50505050565b600060028204905060018216806113eb57607f821691505b602082108114156113ff576113fe6114c5565b5b50919050565b61140e82611523565b810181811067ffffffffffffffff8211171561142d5761142c6114f4565b5b80604052505050565b600061144182611387565b915061144c83611387565b92508261145c5761145b611496565b5b828206905092915050565b7f4e487b7100000000000000000000000000000000000000000000000000000000600052601160045260246000fd5b7f4e487b7100000000000000000000000000000000000000000000000000000000600052601260045260246000fd5b7f4e487b7100000000000000000000000000000000000000000000000000000000600052602260045260246000fd5b7f4e487b7100000000000000000000000000000000000000000000000000000000600052604160045260246000fd5b6000601f19601f8301169050919050565b7f4661696c656420746f20646973747269627574652061776172642e0000000000600082015250565b7f596f206d616e20706c6561736520776169742035206d696e206265666f72652060008201527f796f752063616e2063686565727320616761696e2e0000000000000000000000602082015250565b7f46616c69656420746f20706179207265776172642e2e3f000000000000000000600082015250565b50565b7f596f206d616e20706c656173652077616974203135206d696e206265666f726560008201527f20796f752063616e207477617420616761696e2e000000000000000000000000602082015250565b7f4e6f206d6f27206d6f6f6c61203a280000000000000000000000000000000000600082015250565b7f6e6f206d6f7265206d6f6f6c61206c6566742c2073616467652e000000000000600082015250565b61168281611355565b811461168d57600080fd5b50565b61169981611387565b81146116a457600080fd5b5056fea2646970667358221220ca50f342209245305cb7086ec1b50265e0c7fe4b908bded8a123bfc1fb19be9f64736f6c63430008040033",
  "linkReferences": {},
  "deployedLinkReferences": {}
}