{
  "_format": "hh-sol-artifact-1",
  "contractName": "BCtwatter",
  "sourceName": "contracts/BCtwatter.sol",
  "abi": [
    {
      "inputs": [],
      "stateMutability": "nonpayable",
      "type": "constructor"
    },
    {
      "anonymous": false,
      "inputs": [
        {
          "indexed": true,
          "internalType": "address",
          "name": "from",
          "type": "address"
        },
        {
          "indexed": false,
          "internalType": "uint256",
          "name": "timestamp",
          "type": "uint256"
        },
        {
          "indexed": false,
          "internalType": "string",
          "name": "message",
          "type": "string"
        }
      ],
      "name": "TwatReceived",
      "type": "event"
    },
    {
      "inputs": [
        {
          "internalType": "uint256",
          "name": "twatIndex",
          "type": "uint256"
        }
      ],
      "name": "cheers",
      "outputs": [],
      "stateMutability": "nonpayable",
      "type": "function"
    },
    {
      "inputs": [],
      "name": "getAllTwats",
      "outputs": [
        {
          "components": [
            {
              "internalType": "uint256",
              "name": "twatID",
              "type": "uint256"
            },
            {
              "internalType": "address",
              "name": "twatee",
              "type": "address"
            },
            {
              "internalType": "string",
              "name": "message",
              "type": "string"
            },
            {
              "internalType": "uint256",
              "name": "timestamp",
              "type": "uint256"
            },
            {
              "internalType": "uint256",
              "name": "N_cheers",
              "type": "uint256"
            }
          ],
          "internalType": "struct BCtwatter.Twat[]",
          "name": "",
          "type": "tuple[]"
        }
      ],
      "stateMutability": "view",
      "type": "function"
    },
    {
      "inputs": [],
      "name": "getTotalTwats",
      "outputs": [
        {
          "internalType": "uint256",
          "name": "",
          "type": "uint256"
        }
      ],
      "stateMutability": "view",
      "type": "function"
    },
    {
      "inputs": [
        {
          "internalType": "string",
          "name": "_message",
          "type": "string"
        }
      ],
      "name": "twat",
      "outputs": [],
      "stateMutability": "nonpayable",
      "type": "function"
    }
  ],
  "bytecode": "0x60806040523480156200001157600080fd5b506200005d6040518060400160405280600f81526020017f436f6e74726163742063616c6c656400000000000000000000000000000000008152506200006360201b620004331760201c565b620001f7565b62000103816040516024016200007a919062000170565b6040516020818303038152906040527f41304fac000000000000000000000000000000000000000000000000000000007bffffffffffffffffffffffffffffffffffffffffffffffffffffffff19166020820180517bffffffffffffffffffffffffffffffffffffffffffffffffffffffff83818316178352505050506200010660201b60201c565b50565b60008151905060006a636f6e736f6c652e6c6f679050602083016000808483855afa5050505050565b60006200013c8262000194565b6200014881856200019f565b93506200015a818560208601620001b0565b6200016581620001e6565b840191505092915050565b600060208201905081810360008301526200018c81846200012f565b905092915050565b600081519050919050565b600082825260208201905092915050565b60005b83811015620001d0578082015181840152602081019050620001b3565b83811115620001e0576000848401525b50505050565b6000601f19601f8301169050919050565b610c7d80620002076000396000f3fe608060405234801561001057600080fd5b506004361061004c5760003560e01c806320cd43e7146100515780634609b2921461006f578063541a74b21461008b578063646d9f95146100a7575b600080fd5b6100596100c5565b6040516100669190610954565b60405180910390f35b610089600480360381019061008491906106b4565b6100ce565b005b6100a560048036038101906100a091906106f5565b610269565b005b6100af6102ce565b6040516100bc91906108cb565b60405180910390f35b60008054905090565b61010e6040518060400160405280600e81526020017f257320747761747465643a20257300000000000000000000000000000000000081525033836104cc565b60016040518060a0016040528060005481526020013373ffffffffffffffffffffffffffffffffffffffff168152602001838152602001428152602001600081525090806001815401808255809150506001900390600052602060002090600502016000909190919091506000820151816000015560208201518160010160006101000a81548173ffffffffffffffffffffffffffffffffffffffff021916908373ffffffffffffffffffffffffffffffffffffffff16021790555060408201518160020190805190602001906101e6929190610594565b50606082015181600301556080820151816004015550503373ffffffffffffffffffffffffffffffffffffffff167fe35cdf0665f4aa886a6d23a5d9c878668e11e7b93d0ac5b58efcbd18c19b6fd0428360405161024592919061096f565b60405180910390a2600160008082825461025f9190610a5b565b9250508190555050565b60018082815481106102a4577f4e487b7100000000000000000000000000000000000000000000000000000000600052603260045260246000fd5b906000526020600020906005020160040160008282546102c49190610a5b565b9250508190555050565b60606001805480602002602001604051908101604052809291908181526020016000905b8282101561042a57838290600052602060002090600502016040518060a0016040529081600082015481526020016001820160009054906101000a900473ffffffffffffffffffffffffffffffffffffffff1673ffffffffffffffffffffffffffffffffffffffff1673ffffffffffffffffffffffffffffffffffffffff16815260200160028201805461038590610b2f565b80601f01602080910402602001604051908101604052809291908181526020018280546103b190610b2f565b80156103fe5780601f106103d3576101008083540402835291602001916103fe565b820191906000526020600020905b8154815290600101906020018083116103e157829003601f168201915b5050505050815260200160038201548152602001600482015481525050815260200190600101906102f2565b50505050905090565b6104c98160405160240161044791906108ed565b6040516020818303038152906040527f41304fac000000000000000000000000000000000000000000000000000000007bffffffffffffffffffffffffffffffffffffffffffffffffffffffff19166020820180517bffffffffffffffffffffffffffffffffffffffffffffffffffffffff838183161783525050505061056b565b50565b6105668383836040516024016104e49392919061090f565b6040516020818303038152906040527fe0e9ad4f000000000000000000000000000000000000000000000000000000007bffffffffffffffffffffffffffffffffffffffffffffffffffffffff19166020820180517bffffffffffffffffffffffffffffffffffffffffffffffffffffffff838183161783525050505061056b565b505050565b60008151905060006a636f6e736f6c652e6c6f679050602083016000808483855afa5050505050565b8280546105a090610b2f565b90600052602060002090601f0160209004810192826105c25760008555610609565b82601f106105db57805160ff1916838001178555610609565b82800160010185558215610609579182015b828111156106085782518255916020019190600101906105ed565b5b509050610616919061061a565b5090565b5b8082111561063357600081600090555060010161061b565b5090565b600061064a610645846109c4565b61099f565b90508281526020810184848401111561066257600080fd5b61066d848285610aed565b509392505050565b600082601f83011261068657600080fd5b8135610696848260208601610637565b91505092915050565b6000813590506106ae81610c30565b92915050565b6000602082840312156106c657600080fd5b600082013567ffffffffffffffff8111156106e057600080fd5b6106ec84828501610675565b91505092915050565b60006020828403121561070757600080fd5b60006107158482850161069f565b91505092915050565b600061072a8383610837565b905092915050565b61073b81610ab1565b82525050565b61074a81610ab1565b82525050565b600061075b82610a05565b6107658185610a28565b935083602082028501610777856109f5565b8060005b858110156107b35784840389528151610794858261071e565b945061079f83610a1b565b925060208a0199505060018101905061077b565b50829750879550505050505092915050565b60006107d082610a10565b6107da8185610a39565b93506107ea818560208601610afc565b6107f381610c1f565b840191505092915050565b600061080982610a10565b6108138185610a4a565b9350610823818560208601610afc565b61082c81610c1f565b840191505092915050565b600060a08301600083015161084f60008601826108ad565b5060208301516108626020860182610732565b506040830151848203604086015261087a82826107c5565b915050606083015161088f60608601826108ad565b5060808301516108a260808601826108ad565b508091505092915050565b6108b681610ae3565b82525050565b6108c581610ae3565b82525050565b600060208201905081810360008301526108e58184610750565b905092915050565b6000602082019050818103600083015261090781846107fe565b905092915050565b6000606082019050818103600083015261092981866107fe565b90506109386020830185610741565b818103604083015261094a81846107fe565b9050949350505050565b600060208201905061096960008301846108bc565b92915050565b600060408201905061098460008301856108bc565b818103602083015261099681846107fe565b90509392505050565b60006109a96109ba565b90506109b58282610b61565b919050565b6000604051905090565b600067ffffffffffffffff8211156109df576109de610bf0565b5b6109e882610c1f565b9050602081019050919050565b6000819050602082019050919050565b600081519050919050565b600081519050919050565b6000602082019050919050565b600082825260208201905092915050565b600082825260208201905092915050565b600082825260208201905092915050565b6000610a6682610ae3565b9150610a7183610ae3565b9250827fffffffffffffffffffffffffffffffffffffffffffffffffffffffffffffffff03821115610aa657610aa5610b92565b5b828201905092915050565b6000610abc82610ac3565b9050919050565b600073ffffffffffffffffffffffffffffffffffffffff82169050919050565b6000819050919050565b82818337600083830152505050565b60005b83811015610b1a578082015181840152602081019050610aff565b83811115610b29576000848401525b50505050565b60006002820490506001821680610b4757607f821691505b60208210811415610b5b57610b5a610bc1565b5b50919050565b610b6a82610c1f565b810181811067ffffffffffffffff82111715610b8957610b88610bf0565b5b80604052505050565b7f4e487b7100000000000000000000000000000000000000000000000000000000600052601160045260246000fd5b7f4e487b7100000000000000000000000000000000000000000000000000000000600052602260045260246000fd5b7f4e487b7100000000000000000000000000000000000000000000000000000000600052604160045260246000fd5b6000601f19601f8301169050919050565b610c3981610ae3565b8114610c4457600080fd5b5056fea26469706673582212204fd8c608801f7392248b64de64291860a885511cd5b0abc57726748eb172949564736f6c63430008040033",
  "linkReferences": {},
  "deployedLinkReferences": {}
}