{
  "_format": "hh-sol-artifact-1",
  "contractName": "BCtwatter",
  "sourceName": "contracts/BCtwatter.sol",
  "abi": [
    {
      "inputs": [],
      "stateMutability": "payable",
      "type": "constructor"
    },
    {
      "anonymous": false,
      "inputs": [
        {
          "indexed": false,
          "internalType": "uint256",
          "name": "index",
          "type": "uint256"
        },
        {
          "indexed": true,
          "internalType": "address",
          "name": "from",
          "type": "address"
        },
        {
          "indexed": false,
          "internalType": "uint256",
          "name": "timestamp",
          "type": "uint256"
        },
        {
          "indexed": false,
          "internalType": "string",
          "name": "message",
          "type": "string"
        },
        {
          "indexed": false,
          "internalType": "uint256",
          "name": "n_cheers",
          "type": "uint256"
        }
      ],
      "name": "TwatReceived",
      "type": "event"
    },
    {
      "inputs": [
        {
          "internalType": "uint256",
          "name": "twatIndex",
          "type": "uint256"
        }
      ],
      "name": "cheers",
      "outputs": [],
      "stateMutability": "nonpayable",
      "type": "function"
    },
    {
      "inputs": [],
      "name": "getAllTwats",
      "outputs": [
        {
          "components": [
            {
              "internalType": "uint256",
              "name": "twatID",
              "type": "uint256"
            },
            {
              "internalType": "address",
              "name": "twatee",
              "type": "address"
            },
            {
              "internalType": "string",
              "name": "message",
              "type": "string"
            },
            {
              "internalType": "uint256",
              "name": "timestamp",
              "type": "uint256"
            },
            {
              "internalType": "uint256",
              "name": "N_cheers",
              "type": "uint256"
            }
          ],
          "internalType": "struct BCtwatter.Twat[]",
          "name": "",
          "type": "tuple[]"
        }
      ],
      "stateMutability": "view",
      "type": "function"
    },
    {
      "inputs": [],
      "name": "getTotalTwats",
      "outputs": [
        {
          "internalType": "uint256",
          "name": "",
          "type": "uint256"
        }
      ],
      "stateMutability": "view",
      "type": "function"
    },
    {
      "inputs": [
        {
          "internalType": "address",
          "name": "",
          "type": "address"
        }
      ],
      "name": "lastCheersedAt",
      "outputs": [
        {
          "internalType": "uint256",
          "name": "",
          "type": "uint256"
        }
      ],
      "stateMutability": "view",
      "type": "function"
    },
    {
      "inputs": [
        {
          "internalType": "address",
          "name": "",
          "type": "address"
        }
      ],
      "name": "lastTwattedAt",
      "outputs": [
        {
          "internalType": "uint256",
          "name": "",
          "type": "uint256"
        }
      ],
      "stateMutability": "view",
      "type": "function"
    },
    {
      "inputs": [
        {
          "internalType": "string",
          "name": "_message",
          "type": "string"
        }
      ],
      "name": "twat",
      "outputs": [],
      "stateMutability": "nonpayable",
      "type": "function"
    }
  ],
  "bytecode": "0x60806040526200004f6040518060400160405280600f81526020017f436f6e74726163742063616c6c656400000000000000000000000000000000008152506200007760201b620009311760201c565b606444426200005f9190620001c4565b6200006b919062000261565b60018190555062000308565b62000117816040516024016200008e919062000184565b6040516020818303038152906040527f41304fac000000000000000000000000000000000000000000000000000000007bffffffffffffffffffffffffffffffffffffffffffffffffffffffff19166020820180517bffffffffffffffffffffffffffffffffffffffffffffffffffffffff83818316178352505050506200011a60201b60201c565b50565b60008151905060006a636f6e736f6c652e6c6f679050602083016000808483855afa5050505050565b60006200015082620001a8565b6200015c8185620001b3565b93506200016e8185602086016200022b565b6200017981620002f7565b840191505092915050565b60006020820190508181036000830152620001a0818462000143565b905092915050565b600081519050919050565b600082825260208201905092915050565b6000620001d18262000221565b9150620001de8362000221565b9250827fffffffffffffffffffffffffffffffffffffffffffffffffffffffffffffffff0382111562000216576200021562000299565b5b828201905092915050565b6000819050919050565b60005b838110156200024b5780820151818401526020810190506200022e565b838111156200025b576000848401525b50505050565b60006200026e8262000221565b91506200027b8362000221565b9250826200028e576200028d620002c8565b5b828206905092915050565b7f4e487b7100000000000000000000000000000000000000000000000000000000600052601160045260246000fd5b7f4e487b7100000000000000000000000000000000000000000000000000000000600052601260045260246000fd5b6000601f19601f8301169050919050565b61171f80620003186000396000f3fe608060405234801561001057600080fd5b50600436106100625760003560e01c806320cd43e7146100675780634609b29214610085578063541a74b2146100a1578063646d9f95146100bd57806390517109146100db578063d7316e0b1461010b575b600080fd5b61006f61013b565b60405161007c9190611201565b60405180910390f35b61009f600480360381019061009a9190610d28565b610144565b005b6100bb60048036038101906100b69190610d69565b610569565b005b6100c561079c565b6040516100d29190611058565b60405180910390f35b6100f560048036038101906100f09190610cff565b610901565b6040516101029190611201565b60405180910390f35b61012560048036038101906101209190610cff565b610919565b6040516101329190611201565b60405180910390f35b60008054905090565b42603c600260003373ffffffffffffffffffffffffffffffffffffffff1673ffffffffffffffffffffffffffffffffffffffff16815260200190815260200160002054610191919061132f565b106101d1576040517f08c379a00000000000000000000000000000000000000000000000000000000081526004016101c8906111a1565b60405180910390fd5b42600260003373ffffffffffffffffffffffffffffffffffffffff1673ffffffffffffffffffffffffffffffffffffffff168152602001908152602001600020819055506102556040518060400160405280600e81526020017f257320747761747465643a20257300000000000000000000000000000000000081525033836109ca565b60046040518060a0016040528060005481526020013373ffffffffffffffffffffffffffffffffffffffff168152602001838152602001428152602001600081525090806001815401808255809150506001900390600052602060002090600502016000909190919091506000820151816000015560208201518160010160006101000a81548173ffffffffffffffffffffffffffffffffffffffff021916908373ffffffffffffffffffffffffffffffffffffffff160217905550604082015181600201908051906020019061032d929190610bca565b50606082015181600301556080820151816004015550503373ffffffffffffffffffffffffffffffffffffffff167fed0c03f9d579c6fa8b82047986c3036ce721e3ef8171a3d166222cf9daba668a60005442846000604051610393949392919061121c565b60405180910390a260016000808282546103ad919061132f565b92505081905550606460015442446103c5919061132f565b6103cf919061132f565b6103d99190611478565b6001819055506104206040518060400160405280601681526020017f52616e646f6d20232067656e6572617465643a20256400000000000000000000815250600154610a69565b600a60015411610566576104696040518060400160405280602081526020017f57696e6e65722077696e6e657220636869636b656e2064696e6e65723a20257381525033610b05565b6000655af3107a40009050478111156104b7576040517f08c379a00000000000000000000000000000000000000000000000000000000081526004016104ae906111c1565b60405180910390fd5b60003373ffffffffffffffffffffffffffffffffffffffff16826040516104dd90611043565b60006040518083038185875af1925050503d806000811461051a576040519150601f19603f3d011682016040523d82523d6000602084013e61051f565b606091505b5050905080610563576040517f08c379a000000000000000000000000000000000000000000000000000000000815260040161055a90611161565b60405180910390fd5b50505b50565b42603c600360003373ffffffffffffffffffffffffffffffffffffffff1673ffffffffffffffffffffffffffffffffffffffff168152602001908152602001600020546105b6919061132f565b106105f6576040517f08c379a00000000000000000000000000000000000000000000000000000000081526004016105ed90611181565b60405180910390fd5b42600360003373ffffffffffffffffffffffffffffffffffffffff1673ffffffffffffffffffffffffffffffffffffffff16815260200190815260200160002081905550600160048281548110610676577f4e487b7100000000000000000000000000000000000000000000000000000000600052603260045260246000fd5b90600052602060002090600502016004016000828254610696919061132f565b9250508190555060006509184e72a0009050478111156106eb576040517f08c379a00000000000000000000000000000000000000000000000000000000081526004016106e2906111e1565b60405180910390fd5b60003373ffffffffffffffffffffffffffffffffffffffff168260405161071190611043565b60006040518083038185875af1925050503d806000811461074e576040519150601f19603f3d011682016040523d82523d6000602084013e610753565b606091505b5050905080610797576040517f08c379a000000000000000000000000000000000000000000000000000000000815260040161078e90611141565b60405180910390fd5b505050565b60606004805480602002602001604051908101604052809291908181526020016000905b828210156108f857838290600052602060002090600502016040518060a0016040529081600082015481526020016001820160009054906101000a900473ffffffffffffffffffffffffffffffffffffffff1673ffffffffffffffffffffffffffffffffffffffff1673ffffffffffffffffffffffffffffffffffffffff16815260200160028201805461085390611415565b80601f016020809104026020016040519081016040528092919081815260200182805461087f90611415565b80156108cc5780601f106108a1576101008083540402835291602001916108cc565b820191906000526020600020905b8154815290600101906020018083116108af57829003601f168201915b5050505050815260200160038201548152602001600482015481525050815260200190600101906107c0565b50505050905090565b60026020528060005260406000206000915090505481565b60036020528060005260406000206000915090505481565b6109c781604051602401610945919061107a565b6040516020818303038152906040527f41304fac000000000000000000000000000000000000000000000000000000007bffffffffffffffffffffffffffffffffffffffffffffffffffffffff19166020820180517bffffffffffffffffffffffffffffffffffffffffffffffffffffffff8381831617835250505050610ba1565b50565b610a648383836040516024016109e2939291906110cc565b6040516020818303038152906040527fe0e9ad4f000000000000000000000000000000000000000000000000000000007bffffffffffffffffffffffffffffffffffffffffffffffffffffffff19166020820180517bffffffffffffffffffffffffffffffffffffffffffffffffffffffff8381831617835250505050610ba1565b505050565b610b018282604051602401610a7f929190611111565b6040516020818303038152906040527f9710a9d0000000000000000000000000000000000000000000000000000000007bffffffffffffffffffffffffffffffffffffffffffffffffffffffff19166020820180517bffffffffffffffffffffffffffffffffffffffffffffffffffffffff8381831617835250505050610ba1565b5050565b610b9d8282604051602401610b1b92919061109c565b6040516020818303038152906040527f319af333000000000000000000000000000000000000000000000000000000007bffffffffffffffffffffffffffffffffffffffffffffffffffffffff19166020820180517bffffffffffffffffffffffffffffffffffffffffffffffffffffffff8381831617835250505050610ba1565b5050565b60008151905060006a636f6e736f6c652e6c6f679050602083016000808483855afa5050505050565b828054610bd690611415565b90600052602060002090601f016020900481019282610bf85760008555610c3f565b82601f10610c1157805160ff1916838001178555610c3f565b82800160010185558215610c3f579182015b82811115610c3e578251825591602001919060010190610c23565b5b509050610c4c9190610c50565b5090565b5b80821115610c69576000816000905550600101610c51565b5090565b6000610c80610c7b8461128d565b611268565b905082815260208101848484011115610c9857600080fd5b610ca38482856113d3565b509392505050565b600081359050610cba816116bb565b92915050565b600082601f830112610cd157600080fd5b8135610ce1848260208601610c6d565b91505092915050565b600081359050610cf9816116d2565b92915050565b600060208284031215610d1157600080fd5b6000610d1f84828501610cab565b91505092915050565b600060208284031215610d3a57600080fd5b600082013567ffffffffffffffff811115610d5457600080fd5b610d6084828501610cc0565b91505092915050565b600060208284031215610d7b57600080fd5b6000610d8984828501610cea565b91505092915050565b6000610d9e8383610faf565b905092915050565b610daf81611385565b82525050565b610dbe81611385565b82525050565b6000610dcf826112ce565b610dd981856112f1565b935083602082028501610deb856112be565b8060005b85811015610e275784840389528151610e088582610d92565b9450610e13836112e4565b925060208a01995050600181019050610def565b50829750879550505050505092915050565b610e42816113c1565b82525050565b6000610e53826112d9565b610e5d818561130d565b9350610e6d8185602086016113e2565b610e7681611565565b840191505092915050565b6000610e8c826112d9565b610e96818561131e565b9350610ea68185602086016113e2565b610eaf81611565565b840191505092915050565b6000610ec7601b8361131e565b9150610ed282611576565b602082019050919050565b6000610eea60178361131e565b9150610ef58261159f565b602082019050919050565b6000610f0d60358361131e565b9150610f18826115c8565b604082019050919050565b6000610f30600083611302565b9150610f3b82611617565b600082019050919050565b6000610f5360338361131e565b9150610f5e8261161a565b604082019050919050565b6000610f76600f8361131e565b9150610f8182611669565b602082019050919050565b6000610f99601a8361131e565b9150610fa482611692565b602082019050919050565b600060a083016000830151610fc76000860182611025565b506020830151610fda6020860182610da6565b5060408301518482036040860152610ff28282610e48565b91505060608301516110076060860182611025565b50608083015161101a6080860182611025565b508091505092915050565b61102e816113b7565b82525050565b61103d816113b7565b82525050565b600061104e82610f23565b9150819050919050565b600060208201905081810360008301526110728184610dc4565b905092915050565b600060208201905081810360008301526110948184610e81565b905092915050565b600060408201905081810360008301526110b68185610e81565b90506110c56020830184610db5565b9392505050565b600060608201905081810360008301526110e68186610e81565b90506110f56020830185610db5565b81810360408301526111078184610e81565b9050949350505050565b6000604082019050818103600083015261112b8185610e81565b905061113a6020830184611034565b9392505050565b6000602082019050818103600083015261115a81610eba565b9050919050565b6000602082019050818103600083015261117a81610edd565b9050919050565b6000602082019050818103600083015261119a81610f00565b9050919050565b600060208201905081810360008301526111ba81610f46565b9050919050565b600060208201905081810360008301526111da81610f69565b9050919050565b600060208201905081810360008301526111fa81610f8c565b9050919050565b60006020820190506112166000830184611034565b92915050565b60006080820190506112316000830187611034565b61123e6020830186611034565b81810360408301526112508185610e81565b905061125f6060830184610e39565b95945050505050565b6000611272611283565b905061127e8282611447565b919050565b6000604051905090565b600067ffffffffffffffff8211156112a8576112a7611536565b5b6112b182611565565b9050602081019050919050565b6000819050602082019050919050565b600081519050919050565b600081519050919050565b6000602082019050919050565b600082825260208201905092915050565b600081905092915050565b600082825260208201905092915050565b600082825260208201905092915050565b600061133a826113b7565b9150611345836113b7565b9250827fffffffffffffffffffffffffffffffffffffffffffffffffffffffffffffffff0382111561137a576113796114a9565b5b828201905092915050565b600061139082611397565b9050919050565b600073ffffffffffffffffffffffffffffffffffffffff82169050919050565b6000819050919050565b60006113cc826113b7565b9050919050565b82818337600083830152505050565b60005b838110156114005780820151818401526020810190506113e5565b8381111561140f576000848401525b50505050565b6000600282049050600182168061142d57607f821691505b6020821081141561144157611440611507565b5b50919050565b61145082611565565b810181811067ffffffffffffffff8211171561146f5761146e611536565b5b80604052505050565b6000611483826113b7565b915061148e836113b7565b92508261149e5761149d6114d8565b5b828206905092915050565b7f4e487b7100000000000000000000000000000000000000000000000000000000600052601160045260246000fd5b7f4e487b7100000000000000000000000000000000000000000000000000000000600052601260045260246000fd5b7f4e487b7100000000000000000000000000000000000000000000000000000000600052602260045260246000fd5b7f4e487b7100000000000000000000000000000000000000000000000000000000600052604160045260246000fd5b6000601f19601f8301169050919050565b7f4661696c656420746f20646973747269627574652061776172642e0000000000600082015250565b7f46616c69656420746f20706179207265776172642e2e3f000000000000000000600082015250565b7f596f206d616e20706c6561736520776169742031206d696e206265666f72652060008201527f796f752063616e2063686565727320616761696e2e0000000000000000000000602082015250565b50565b7f596f206d616e20706c6561736520776169742031206d696e206265666f72652060008201527f796f752063616e207477617420616761696e2e00000000000000000000000000602082015250565b7f4e6f206d6f27206d6f6f6c61203a280000000000000000000000000000000000600082015250565b7f6e6f206d6f7265206d6f6f6c61206c6566742c2073616467652e000000000000600082015250565b6116c481611385565b81146116cf57600080fd5b50565b6116db816113b7565b81146116e657600080fd5b5056fea2646970667358221220bb1aa4a867932f887fcba11025651939e1befe96eacd0cd38ff222756a418af864736f6c63430008040033",
  "linkReferences": {},
  "deployedLinkReferences": {}
}